{
  "_format": "hh-sol-artifact-1",
  "contractName": "Voting",
  "sourceName": "contracts/Voting.sol",
  "abi": [
    {
      "inputs": [
        {
          "internalType": "address",
          "name": "trustedForwarder",
          "type": "address"
        }
      ],
      "stateMutability": "nonpayable",
      "type": "constructor"
    },
    {
      "anonymous": false,
      "inputs": [
        {
          "indexed": false,
          "internalType": "address",
          "name": "voter",
          "type": "address"
        },
        {
          "indexed": false,
          "internalType": "uint256",
          "name": "positionId",
          "type": "uint256"
        },
        {
          "indexed": false,
          "internalType": "uint256",
          "name": "candidateId",
          "type": "uint256"
        }
      ],
      "name": "VoteCast",
      "type": "event"
    },
    {
      "anonymous": false,
      "inputs": [
        {
          "indexed": false,
          "internalType": "address",
          "name": "voter",
          "type": "address"
        }
      ],
      "name": "VoterWhitelisted",
      "type": "event"
    },
    {
      "inputs": [],
      "name": "admin",
      "outputs": [
        {
          "internalType": "address",
          "name": "",
          "type": "address"
        }
      ],
      "stateMutability": "view",
      "type": "function"
    },
    {
      "inputs": [
        {
          "internalType": "uint256",
          "name": "",
          "type": "uint256"
        }
      ],
      "name": "candidateVotes",
      "outputs": [
        {
          "internalType": "uint256",
          "name": "",
          "type": "uint256"
        }
      ],
      "stateMutability": "view",
      "type": "function"
    },
    {
      "inputs": [
        {
          "internalType": "uint256",
          "name": "_candidateId",
          "type": "uint256"
        }
      ],
      "name": "getCandidateVotes",
      "outputs": [
        {
          "internalType": "uint256",
          "name": "",
          "type": "uint256"
        }
      ],
      "stateMutability": "view",
      "type": "function"
    },
    {
      "inputs": [
        {
          "internalType": "address",
          "name": "",
          "type": "address"
        },
        {
          "internalType": "uint256",
          "name": "",
          "type": "uint256"
        }
      ],
      "name": "hasVotedForPosition",
      "outputs": [
        {
          "internalType": "bool",
          "name": "",
          "type": "bool"
        }
      ],
      "stateMutability": "view",
      "type": "function"
    },
    {
      "inputs": [
        {
          "internalType": "address",
          "name": "forwarder",
          "type": "address"
        }
      ],
      "name": "isTrustedForwarder",
      "outputs": [
        {
          "internalType": "bool",
          "name": "",
          "type": "bool"
        }
      ],
      "stateMutability": "view",
      "type": "function"
    },
    {
      "inputs": [
        {
          "internalType": "address",
          "name": "",
          "type": "address"
        }
      ],
      "name": "isWhitelisted",
      "outputs": [
        {
          "internalType": "bool",
          "name": "",
          "type": "bool"
        }
      ],
      "stateMutability": "view",
      "type": "function"
    },
    {
      "inputs": [],
      "name": "trustedForwarder",
      "outputs": [
        {
          "internalType": "address",
          "name": "",
          "type": "address"
        }
      ],
      "stateMutability": "view",
      "type": "function"
    },
    {
      "inputs": [
        {
          "internalType": "uint256",
          "name": "_positionId",
          "type": "uint256"
        },
        {
          "internalType": "uint256",
          "name": "_candidateId",
          "type": "uint256"
        }
      ],
      "name": "vote",
      "outputs": [],
      "stateMutability": "nonpayable",
      "type": "function"
    },
    {
      "inputs": [
        {
          "internalType": "address",
          "name": "_voter",
          "type": "address"
        }
      ],
      "name": "whitelistVoter",
      "outputs": [],
      "stateMutability": "nonpayable",
      "type": "function"
    }
  ],
  "bytecode": "0x60a060405234801561000f575f80fd5b506040516107f73803806107f783398101604081905261002e916100d3565b6001600160a01b038116608052610043610068565b5f80546001600160a01b0319166001600160a01b039290921691909117905550610157565b5f3660148082108015906100805750610080336100ae565b156100a65761009336828403815f610100565b61009c91610127565b60601c9250505090565b339250505090565b5f6100b860805190565b6001600160a01b0316826001600160a01b0316149050919050565b5f602082840312156100e3575f80fd5b81516001600160a01b03811681146100f9575f80fd5b9392505050565b5f808585111561010e575f80fd5b8386111561011a575f80fd5b5050820193919092039150565b6001600160601b0319813581811691601485101561014f5780818660140360031b1b83161692505b505092915050565b60805161067b61017c5f395f818160db0152818161010d01526104d2015261067b5ff3fe608060405234801561000f575f80fd5b5060043610610090575f3560e01c80639d261a78116100635780639d261a7814610172578063b384abef1461019f578063bddf1ce9146101b4578063f49e323e146101c7578063f851a440146101e6575f80fd5b80633af32abf14610094578063572b6c05146100cb5780637da0a8771461010b578063866163c014610145575b5f80fd5b6100b66100a2366004610546565b60016020525f908152604090205460ff1681565b60405190151581526020015b60405180910390f35b6100b66100d9366004610546565b7f00000000000000000000000000000000000000000000000000000000000000006001600160a01b0390811691161490565b7f00000000000000000000000000000000000000000000000000000000000000005b6040516001600160a01b0390911681526020016100c2565b610164610153366004610566565b5f9081526003602052604090205490565b6040519081526020016100c2565b6100b661018036600461057d565b600260209081525f928352604080842090915290825290205460ff1681565b6101b26101ad3660046105a5565b6101f8565b005b6101b26101c2366004610546565b61038b565b6101646101d5366004610566565b60036020525f908152604090205481565b5f5461012d906001600160a01b031681565b5f6102016104c1565b6001600160a01b0381165f9081526001602052604090205490915060ff166102705760405162461bcd60e51b815260206004820152601d60248201527f596f7520617265206e6f7420616e20656c696769626c6520766f74657200000060448201526064015b60405180910390fd5b6001600160a01b0381165f90815260026020908152604080832086845290915290205460ff16156102f45760405162461bcd60e51b815260206004820152602860248201527f596f75206861766520616c726561647920766f74656420666f722074686973206044820152673837b9b4ba34b7b760c11b6064820152608401610267565b6001600160a01b0381165f9081526002602090815260408083208684528252808320805460ff1916600117905584835260039091528120805491610337836105c5565b9091555050604080516001600160a01b0383168152602081018590529081018390527fb4cfecf70861b7b150d8337780d34fb4cbc2114b5fb1fe51a5c5fca1849f72749060600160405180910390a1505050565b5f546001600160a01b031661039e6104c1565b6001600160a01b0316146103ff5760405162461bcd60e51b815260206004820152602260248201527f4f6e6c792061646d696e2063616e20706572666f726d2074686973206163746960448201526137b760f11b6064820152608401610267565b6001600160a01b0381165f9081526001602052604090205460ff16156104675760405162461bcd60e51b815260206004820152601c60248201527f566f74657220697320616c72656164792077686974656c6973746564000000006044820152606401610267565b6001600160a01b0381165f81815260016020818152604092839020805460ff191690921790915590519182527f5cb979827581f5a2d6accf830511f42bc79705dde54d001643bb14fea7f75d58910160405180910390a150565b5f3660148082108015906104fd57507f00000000000000000000000000000000000000000000000000000000000000006001600160a01b031633145b156105235761051036828403815f6105e9565b61051991610610565b60601c9250505090565b339250505090565b80356001600160a01b0381168114610541575f80fd5b919050565b5f60208284031215610556575f80fd5b61055f8261052b565b9392505050565b5f60208284031215610576575f80fd5b5035919050565b5f806040838503121561058e575f80fd5b6105978361052b565b946020939093013593505050565b5f80604083850312156105b6575f80fd5b50508035926020909101359150565b5f600182016105e257634e487b7160e01b5f52601160045260245ffd5b5060010190565b5f80858511156105f7575f80fd5b83861115610603575f80fd5b5050820193919092039150565b6bffffffffffffffffffffffff19813581811691601485101561063d5780818660140360031b1b83161692505b50509291505056fea26469706673582212209b484c449aadfdfd951019eda12404f4f64cd76910d5ab4065c0db8b70639cb464736f6c63430008180033",
  "linkReferences": {},
  "deployedLinkReferences": {}
}