{
  "_format": "hh-sol-artifact-1",
  "contractName": "Voting",
  "sourceName": "contracts/Voting.sol",
  "abi": [
    {
      "inputs": [],
      "stateMutability": "nonpayable",
      "type": "constructor"
    },
    {
      "anonymous": false,
      "inputs": [
        {
          "indexed": false,
          "internalType": "uint256",
          "name": "id",
          "type": "uint256"
        },
        {
          "indexed": false,
          "internalType": "string",
          "name": "name",
          "type": "string"
        }
      ],
      "name": "CandidateAdded",
      "type": "event"
    },
    {
      "anonymous": false,
      "inputs": [
        {
          "indexed": false,
          "internalType": "address",
          "name": "voter",
          "type": "address"
        },
        {
          "indexed": false,
          "internalType": "uint256",
          "name": "candidateId",
          "type": "uint256"
        }
      ],
      "name": "VoteCast",
      "type": "event"
    },
    {
      "anonymous": false,
      "inputs": [
        {
          "indexed": false,
          "internalType": "address",
          "name": "voter",
          "type": "address"
        }
      ],
      "name": "VoterWhitelisted",
      "type": "event"
    },
    {
      "inputs": [
        {
          "internalType": "string",
          "name": "_name",
          "type": "string"
        }
      ],
      "name": "addCandidate",
      "outputs": [],
      "stateMutability": "nonpayable",
      "type": "function"
    },
    {
      "inputs": [],
      "name": "admin",
      "outputs": [
        {
          "internalType": "address",
          "name": "",
          "type": "address"
        }
      ],
      "stateMutability": "view",
      "type": "function"
    },
    {
      "inputs": [
        {
          "internalType": "uint256",
          "name": "",
          "type": "uint256"
        }
      ],
      "name": "candidates",
      "outputs": [
        {
          "internalType": "uint256",
          "name": "id",
          "type": "uint256"
        },
        {
          "internalType": "string",
          "name": "name",
          "type": "string"
        },
        {
          "internalType": "uint256",
          "name": "voteCount",
          "type": "uint256"
        }
      ],
      "stateMutability": "view",
      "type": "function"
    },
    {
      "inputs": [],
      "name": "candidatesCount",
      "outputs": [
        {
          "internalType": "uint256",
          "name": "",
          "type": "uint256"
        }
      ],
      "stateMutability": "view",
      "type": "function"
    },
    {
      "inputs": [
        {
          "internalType": "uint256",
          "name": "_candidateId",
          "type": "uint256"
        }
      ],
      "name": "getCandidate",
      "outputs": [
        {
          "internalType": "uint256",
          "name": "",
          "type": "uint256"
        },
        {
          "internalType": "string",
          "name": "",
          "type": "string"
        },
        {
          "internalType": "uint256",
          "name": "",
          "type": "uint256"
        }
      ],
      "stateMutability": "view",
      "type": "function"
    },
    {
      "inputs": [
        {
          "internalType": "address",
          "name": "",
          "type": "address"
        }
      ],
      "name": "hasVoted",
      "outputs": [
        {
          "internalType": "bool",
          "name": "",
          "type": "bool"
        }
      ],
      "stateMutability": "view",
      "type": "function"
    },
    {
      "inputs": [
        {
          "internalType": "address",
          "name": "",
          "type": "address"
        }
      ],
      "name": "isWhitelisted",
      "outputs": [
        {
          "internalType": "bool",
          "name": "",
          "type": "bool"
        }
      ],
      "stateMutability": "view",
      "type": "function"
    },
    {
      "inputs": [
        {
          "internalType": "uint256",
          "name": "_candidateId",
          "type": "uint256"
        }
      ],
      "name": "vote",
      "outputs": [],
      "stateMutability": "nonpayable",
      "type": "function"
    },
    {
      "inputs": [
        {
          "internalType": "address",
          "name": "_voter",
          "type": "address"
        }
      ],
      "name": "whitelistVoter",
      "outputs": [],
      "stateMutability": "nonpayable",
      "type": "function"
    }
  ],
  "bytecode": "0x6080604052348015600f57600080fd5b50336000806101000a81548173ffffffffffffffffffffffffffffffffffffffff021916908373ffffffffffffffffffffffffffffffffffffffff16021790555061130a8061005f6000396000f3fe608060405234801561001057600080fd5b50600436106100935760003560e01c806335b8e8201161006657806335b8e820146101345780633af32abf14610166578063462e91ec14610196578063bddf1ce9146101b2578063f851a440146101ce57610093565b80630121b93f1461009857806309eef43e146100b45780632d35a8a2146100e45780633477ee2e14610102575b600080fd5b6100b260048036038101906100ad9190610956565b6101ec565b005b6100ce60048036038101906100c991906109e1565b610416565b6040516100db9190610a29565b60405180910390f35b6100ec610436565b6040516100f99190610a53565b60405180910390f35b61011c60048036038101906101179190610956565b61043c565b60405161012b93929190610afe565b60405180910390f35b61014e60048036038101906101499190610956565b6104ee565b60405161015d93929190610afe565b60405180910390f35b610180600480360381019061017b91906109e1565b6105d8565b60405161018d9190610a29565b60405180910390f35b6101b060048036038101906101ab9190610c71565b6105f8565b005b6101cc60048036038101906101c791906109e1565b61073c565b005b6101d66108e8565b6040516101e39190610cc9565b60405180910390f35b600160003373ffffffffffffffffffffffffffffffffffffffff1673ffffffffffffffffffffffffffffffffffffffff16815260200190815260200160002060009054906101000a900460ff16610278576040517f08c379a000000000000000000000000000000000000000000000000000000000815260040161026f90610d30565b60405180910390fd5b600260003373ffffffffffffffffffffffffffffffffffffffff1673ffffffffffffffffffffffffffffffffffffffff16815260200190815260200160002060009054906101000a900460ff1615610305576040517f08c379a00000000000000000000000000000000000000000000000000000000081526004016102fc90610d9c565b60405180910390fd5b60008111801561031757506004548111155b610356576040517f08c379a000000000000000000000000000000000000000000000000000000000815260040161034d90610e08565b60405180910390fd5b6001600260003373ffffffffffffffffffffffffffffffffffffffff1673ffffffffffffffffffffffffffffffffffffffff16815260200190815260200160002060006101000a81548160ff0219169083151502179055506003600082815260200190815260200160002060020160008154809291906103d590610e57565b91905055507fa36cc2bebb74db33e9f88110a07ef56e1b31b24b4c4f51b54b1664266e29f45b338260405161040b929190610e9f565b60405180910390a150565b60026020528060005260406000206000915054906101000a900460ff1681565b60045481565b600360205280600052604060002060009150905080600001549080600101805461046590610ef7565b80601f016020809104026020016040519081016040528092919081815260200182805461049190610ef7565b80156104de5780601f106104b3576101008083540402835291602001916104de565b820191906000526020600020905b8154815290600101906020018083116104c157829003601f168201915b5050505050908060020154905083565b60006060600080600360008681526020019081526020016000206040518060600160405290816000820154815260200160018201805461052d90610ef7565b80601f016020809104026020016040519081016040528092919081815260200182805461055990610ef7565b80156105a65780601f1061057b576101008083540402835291602001916105a6565b820191906000526020600020905b81548152906001019060200180831161058957829003601f168201915b505050505081526020016002820154815250509050806000015181602001518260400151935093509350509193909250565b60016020528060005260406000206000915054906101000a900460ff1681565b60008054906101000a900473ffffffffffffffffffffffffffffffffffffffff1673ffffffffffffffffffffffffffffffffffffffff163373ffffffffffffffffffffffffffffffffffffffff1614610686576040517f08c379a000000000000000000000000000000000000000000000000000000000815260040161067d90610f9a565b60405180910390fd5b6004600081548092919061069990610e57565b91905055506040518060600160405280600454815260200182815260200160008152506003600060045481526020019081526020016000206000820151816000015560208201518160010190816106f09190611166565b50604082015181600201559050507fe83b2a43e7e82d975c8a0a6d2f045153c869e111136a34d1889ab7b598e396a360045482604051610731929190611238565b60405180910390a150565b60008054906101000a900473ffffffffffffffffffffffffffffffffffffffff1673ffffffffffffffffffffffffffffffffffffffff163373ffffffffffffffffffffffffffffffffffffffff16146107ca576040517f08c379a00000000000000000000000000000000000000000000000000000000081526004016107c190610f9a565b60405180910390fd5b600160008273ffffffffffffffffffffffffffffffffffffffff1673ffffffffffffffffffffffffffffffffffffffff16815260200190815260200160002060009054906101000a900460ff1615610857576040517f08c379a000000000000000000000000000000000000000000000000000000000815260040161084e906112b4565b60405180910390fd5b60018060008373ffffffffffffffffffffffffffffffffffffffff1673ffffffffffffffffffffffffffffffffffffffff16815260200190815260200160002060006101000a81548160ff0219169083151502179055507f5cb979827581f5a2d6accf830511f42bc79705dde54d001643bb14fea7f75d58816040516108dd9190610cc9565b60405180910390a150565b60008054906101000a900473ffffffffffffffffffffffffffffffffffffffff1681565b6000604051905090565b600080fd5b600080fd5b6000819050919050565b61093381610920565b811461093e57600080fd5b50565b6000813590506109508161092a565b92915050565b60006020828403121561096c5761096b610916565b5b600061097a84828501610941565b91505092915050565b600073ffffffffffffffffffffffffffffffffffffffff82169050919050565b60006109ae82610983565b9050919050565b6109be816109a3565b81146109c957600080fd5b50565b6000813590506109db816109b5565b92915050565b6000602082840312156109f7576109f6610916565b5b6000610a05848285016109cc565b91505092915050565b60008115159050919050565b610a2381610a0e565b82525050565b6000602082019050610a3e6000830184610a1a565b92915050565b610a4d81610920565b82525050565b6000602082019050610a686000830184610a44565b92915050565b600081519050919050565b600082825260208201905092915050565b60005b83811015610aa8578082015181840152602081019050610a8d565b60008484015250505050565b6000601f19601f8301169050919050565b6000610ad082610a6e565b610ada8185610a79565b9350610aea818560208601610a8a565b610af381610ab4565b840191505092915050565b6000606082019050610b136000830186610a44565b8181036020830152610b258185610ac5565b9050610b346040830184610a44565b949350505050565b600080fd5b600080fd5b7f4e487b7100000000000000000000000000000000000000000000000000000000600052604160045260246000fd5b610b7e82610ab4565b810181811067ffffffffffffffff82111715610b9d57610b9c610b46565b5b80604052505050565b6000610bb061090c565b9050610bbc8282610b75565b919050565b600067ffffffffffffffff821115610bdc57610bdb610b46565b5b610be582610ab4565b9050602081019050919050565b82818337600083830152505050565b6000610c14610c0f84610bc1565b610ba6565b905082815260208101848484011115610c3057610c2f610b41565b5b610c3b848285610bf2565b509392505050565b600082601f830112610c5857610c57610b3c565b5b8135610c68848260208601610c01565b91505092915050565b600060208284031215610c8757610c86610916565b5b600082013567ffffffffffffffff811115610ca557610ca461091b565b5b610cb184828501610c43565b91505092915050565b610cc3816109a3565b82525050565b6000602082019050610cde6000830184610cba565b92915050565b7f596f7520617265206e6f7420616e20656c696769626c6520766f746572000000600082015250565b6000610d1a601d83610a79565b9150610d2582610ce4565b602082019050919050565b60006020820190508181036000830152610d4981610d0d565b9050919050565b7f596f75206861766520616c726561647920766f74656400000000000000000000600082015250565b6000610d86601683610a79565b9150610d9182610d50565b602082019050919050565b60006020820190508181036000830152610db581610d79565b9050919050565b7f496e76616c69642063616e646964617465000000000000000000000000000000600082015250565b6000610df2601183610a79565b9150610dfd82610dbc565b602082019050919050565b60006020820190508181036000830152610e2181610de5565b9050919050565b7f4e487b7100000000000000000000000000000000000000000000000000000000600052601160045260246000fd5b6000610e6282610920565b91507fffffffffffffffffffffffffffffffffffffffffffffffffffffffffffffffff8203610e9457610e93610e28565b5b600182019050919050565b6000604082019050610eb46000830185610cba565b610ec16020830184610a44565b9392505050565b7f4e487b7100000000000000000000000000000000000000000000000000000000600052602260045260246000fd5b60006002820490506001821680610f0f57607f821691505b602082108103610f2257610f21610ec8565b5b50919050565b7f4f6e6c792061646d696e2063616e20706572666f726d2074686973206163746960008201527f6f6e000000000000000000000000000000000000000000000000000000000000602082015250565b6000610f84602283610a79565b9150610f8f82610f28565b604082019050919050565b60006020820190508181036000830152610fb381610f77565b9050919050565b60008190508160005260206000209050919050565b60006020601f8301049050919050565b600082821b905092915050565b60006008830261101c7fffffffffffffffffffffffffffffffffffffffffffffffffffffffffffffffff82610fdf565b6110268683610fdf565b95508019841693508086168417925050509392505050565b6000819050919050565b600061106361105e61105984610920565b61103e565b610920565b9050919050565b6000819050919050565b61107d83611048565b6110916110898261106a565b848454610fec565b825550505050565b600090565b6110a6611099565b6110b1818484611074565b505050565b5b818110156110d5576110ca60008261109e565b6001810190506110b7565b5050565b601f82111561111a576110eb81610fba565b6110f484610fcf565b81016020851015611103578190505b61111761110f85610fcf565b8301826110b6565b50505b505050565b600082821c905092915050565b600061113d6000198460080261111f565b1980831691505092915050565b6000611156838361112c565b9150826002028217905092915050565b61116f82610a6e565b67ffffffffffffffff81111561118857611187610b46565b5b6111928254610ef7565b61119d8282856110d9565b600060209050601f8311600181146111d057600084156111be578287015190505b6111c8858261114a565b865550611230565b601f1984166111de86610fba565b60005b82811015611206578489015182556001820191506020850194506020810190506111e1565b86831015611223578489015161121f601f89168261112c565b8355505b6001600288020188555050505b505050505050565b600060408201905061124d6000830185610a44565b818103602083015261125f8184610ac5565b90509392505050565b7f566f74657220697320616c72656164792077686974656c697374656400000000600082015250565b600061129e601c83610a79565b91506112a982611268565b602082019050919050565b600060208201905081810360008301526112cd81611291565b905091905056fea2646970667358221220afe4054f45bece21e24c1ee7fd062f672710d3d6a2eb155b9157fe139b4dc6ce64736f6c634300081c0033",
  "linkReferences": {},
  "deployedLinkReferences": {}
}